{
  "_format": "hh-sol-artifact-1",
  "contractName": "USDC",
  "sourceName": "contracts/USDC.sol",
  "abi": [
    {
      "inputs": [],
      "stateMutability": "nonpayable",
      "type": "constructor"
    },
    {
      "anonymous": false,
      "inputs": [
        {
          "indexed": true,
          "internalType": "address",
          "name": "owner",
          "type": "address"
        },
        {
          "indexed": true,
          "internalType": "address",
          "name": "spender",
          "type": "address"
        },
        {
          "indexed": false,
          "internalType": "uint256",
          "name": "value",
          "type": "uint256"
        }
      ],
      "name": "Approval",
      "type": "event"
    },
    {
      "anonymous": false,
      "inputs": [
        {
          "indexed": true,
          "internalType": "address",
          "name": "previousOwner",
          "type": "address"
        },
        {
          "indexed": true,
          "internalType": "address",
          "name": "newOwner",
          "type": "address"
        }
      ],
      "name": "OwnershipTransferred",
      "type": "event"
    },
    {
      "anonymous": false,
      "inputs": [
        {
          "indexed": true,
          "internalType": "address",
          "name": "from",
          "type": "address"
        },
        {
          "indexed": true,
          "internalType": "address",
          "name": "to",
          "type": "address"
        },
        {
          "indexed": false,
          "internalType": "uint256",
          "name": "value",
          "type": "uint256"
        }
      ],
      "name": "Transfer",
      "type": "event"
    },
    {
      "inputs": [],
      "name": "_decimals",
      "outputs": [
        {
          "internalType": "uint8",
          "name": "",
          "type": "uint8"
        }
      ],
      "stateMutability": "view",
      "type": "function"
    },
    {
      "inputs": [],
      "name": "_name",
      "outputs": [
        {
          "internalType": "string",
          "name": "",
          "type": "string"
        }
      ],
      "stateMutability": "view",
      "type": "function"
    },
    {
      "inputs": [],
      "name": "_symbol",
      "outputs": [
        {
          "internalType": "string",
          "name": "",
          "type": "string"
        }
      ],
      "stateMutability": "view",
      "type": "function"
    },
    {
      "inputs": [
        {
          "internalType": "address",
          "name": "owner",
          "type": "address"
        },
        {
          "internalType": "address",
          "name": "spender",
          "type": "address"
        }
      ],
      "name": "allowance",
      "outputs": [
        {
          "internalType": "uint256",
          "name": "",
          "type": "uint256"
        }
      ],
      "stateMutability": "view",
      "type": "function"
    },
    {
      "inputs": [
        {
          "internalType": "address",
          "name": "spender",
          "type": "address"
        },
        {
          "internalType": "uint256",
          "name": "amount",
          "type": "uint256"
        }
      ],
      "name": "approve",
      "outputs": [
        {
          "internalType": "bool",
          "name": "",
          "type": "bool"
        }
      ],
      "stateMutability": "nonpayable",
      "type": "function"
    },
    {
      "inputs": [
        {
          "internalType": "address",
          "name": "account",
          "type": "address"
        }
      ],
      "name": "balanceOf",
      "outputs": [
        {
          "internalType": "uint256",
          "name": "",
          "type": "uint256"
        }
      ],
      "stateMutability": "view",
      "type": "function"
    },
    {
      "inputs": [
        {
          "internalType": "uint256",
          "name": "amount",
          "type": "uint256"
        }
      ],
      "name": "burn",
      "outputs": [
        {
          "internalType": "bool",
          "name": "",
          "type": "bool"
        }
      ],
      "stateMutability": "nonpayable",
      "type": "function"
    },
    {
      "inputs": [],
      "name": "decimals",
      "outputs": [
        {
          "internalType": "uint8",
          "name": "",
          "type": "uint8"
        }
      ],
      "stateMutability": "view",
      "type": "function"
    },
    {
      "inputs": [
        {
          "internalType": "address",
          "name": "spender",
          "type": "address"
        },
        {
          "internalType": "uint256",
          "name": "subtractedValue",
          "type": "uint256"
        }
      ],
      "name": "decreaseAllowance",
      "outputs": [
        {
          "internalType": "bool",
          "name": "",
          "type": "bool"
        }
      ],
      "stateMutability": "nonpayable",
      "type": "function"
    },
    {
      "inputs": [],
      "name": "getOwner",
      "outputs": [
        {
          "internalType": "address",
          "name": "",
          "type": "address"
        }
      ],
      "stateMutability": "view",
      "type": "function"
    },
    {
      "inputs": [
        {
          "internalType": "address",
          "name": "spender",
          "type": "address"
        },
        {
          "internalType": "uint256",
          "name": "addedValue",
          "type": "uint256"
        }
      ],
      "name": "increaseAllowance",
      "outputs": [
        {
          "internalType": "bool",
          "name": "",
          "type": "bool"
        }
      ],
      "stateMutability": "nonpayable",
      "type": "function"
    },
    {
      "inputs": [
        {
          "internalType": "uint256",
          "name": "amount",
          "type": "uint256"
        }
      ],
      "name": "mint",
      "outputs": [
        {
          "internalType": "bool",
          "name": "",
          "type": "bool"
        }
      ],
      "stateMutability": "nonpayable",
      "type": "function"
    },
    {
      "inputs": [],
      "name": "name",
      "outputs": [
        {
          "internalType": "string",
          "name": "",
          "type": "string"
        }
      ],
      "stateMutability": "view",
      "type": "function"
    },
    {
      "inputs": [],
      "name": "owner",
      "outputs": [
        {
          "internalType": "address",
          "name": "",
          "type": "address"
        }
      ],
      "stateMutability": "view",
      "type": "function"
    },
    {
      "inputs": [],
      "name": "renounceOwnership",
      "outputs": [],
      "stateMutability": "nonpayable",
      "type": "function"
    },
    {
      "inputs": [],
      "name": "symbol",
      "outputs": [
        {
          "internalType": "string",
          "name": "",
          "type": "string"
        }
      ],
      "stateMutability": "view",
      "type": "function"
    },
    {
      "inputs": [],
      "name": "totalSupply",
      "outputs": [
        {
          "internalType": "uint256",
          "name": "",
          "type": "uint256"
        }
      ],
      "stateMutability": "view",
      "type": "function"
    },
    {
      "inputs": [
        {
          "internalType": "address",
          "name": "recipient",
          "type": "address"
        },
        {
          "internalType": "uint256",
          "name": "amount",
          "type": "uint256"
        }
      ],
      "name": "transfer",
      "outputs": [
        {
          "internalType": "bool",
          "name": "",
          "type": "bool"
        }
      ],
      "stateMutability": "nonpayable",
      "type": "function"
    },
    {
      "inputs": [
        {
          "internalType": "address",
          "name": "sender",
          "type": "address"
        },
        {
          "internalType": "address",
          "name": "recipient",
          "type": "address"
        },
        {
          "internalType": "uint256",
          "name": "amount",
          "type": "uint256"
        }
      ],
      "name": "transferFrom",
      "outputs": [
        {
          "internalType": "bool",
          "name": "",
          "type": "bool"
        }
      ],
      "stateMutability": "nonpayable",
      "type": "function"
    },
    {
      "inputs": [
        {
          "internalType": "address",
          "name": "newOwner",
          "type": "address"
        }
      ],
      "name": "transferOwnership",
      "outputs": [],
      "stateMutability": "nonpayable",
      "type": "function"
    }
  ],
  "bytecode": "0x60806040523480156200001157600080fd5b506200001d33620000ea565b60408051808201909152600a8152692aa9a221902a37b5b2b760b11b60208201526006906200004d908262000253565b50604080518082019091526004815263109554d160e21b602082015260059062000078908262000253565b506004805460ff191660121790556a19a4815e0ad0c67f00000060038190553360008181526001602052604080822084905551919290917fddf252ad1be2c89b69c2b068fc378daa952ba7f163c4a11628f55a4df523b3ef91620000dc916200031f565b60405180910390a36200032c565b600080546001600160a01b038381166001600160a01b0319831681178455604051919092169283917f8be0079c531659141344cd1fd0a4f28419497f9722a3daafe3b4186f6b6457e09190a35050565b634e487b7160e01b600052604160045260246000fd5b634e487b7160e01b600052602260045260246000fd5b6002810460018216806200017b57607f821691505b60208210810362000190576200019062000150565b50919050565b6000620001a7620001a48381565b90565b92915050565b620001b88362000196565b81546008840282811b60001990911b908116901990911617825550505050565b6000620001e7818484620001ad565b505050565b818110156200020b5762000202600082620001d8565b600101620001ec565b5050565b601f821115620001e7576000818152602090206020601f85010481016020851015620002385750805b6200024c6020601f860104830182620001ec565b5050505050565b81516001600160401b038111156200026f576200026f6200013a565b6200027b825462000166565b620002888282856200020f565b506020601f821160018114620002c05760008315620002a75750848201515b600019600885021c19811660028502178555506200024c565b600084815260208120601f198516915b82811015620002f25787850151825560209485019460019092019101620002d0565b5084821015620003105783870151600019601f87166008021c191681555b50505050600202600101905550565b81815260208101620001a7565b610f3f806200033c6000396000f3fe608060405234801561001057600080fd5b506004361061012c5760003560e01c8063893d20e8116100ad578063a9059cbb11610071578063a9059cbb14610266578063b09f126614610279578063d28d885214610281578063dd62ed3e14610289578063f2fde38b146102c257600080fd5b8063893d20e81461020d5780638da5cb5b1461022757806395d89b4114610238578063a0712d6814610240578063a457c2d71461025357600080fd5b806332424aa3116100f457806332424aa3146101a757806339509351146101b457806342966c68146101c757806370a08231146101da578063715018a61461020357600080fd5b806306fdde0314610131578063095ea7b31461014f57806318160ddd1461016f57806323b872dd14610180578063313ce56714610193575b600080fd5b6101396102d5565b60405161014691906109c3565b60405180910390f35b61016261015d366004610a15565b610367565b6040516101469190610a5c565b6003545b6040516101469190610a70565b61016261018e366004610a7e565b61037e565b60045460ff165b6040516101469190610ad7565b60045461019a9060ff1681565b6101626101c2366004610a15565b6103e7565b6101626101d5366004610ae5565b61041d565b6101736101e8366004610b0e565b6001600160a01b031660009081526001602052604090205490565b61020b610431565b005b6000546001600160a01b03165b6040516101469190610b38565b6000546001600160a01b031661021a565b610139610445565b61016261024e366004610ae5565b610454565b610162610261366004610a15565b610468565b610162610274366004610a15565b6104b7565b6101396104c4565b610139610552565b610173610297366004610b46565b6001600160a01b03918216600090815260026020908152604080832093909416825291909152205490565b61020b6102d0366004610b0e565b61055f565b6060600680546102e490610b8f565b80601f016020809104026020016040519081016040528092919081815260200182805461031090610b8f565b801561035d5780601f106103325761010080835404028352916020019161035d565b820191906000526020600020905b81548152906001019060200180831161034057829003601f168201915b5050505050905090565b60006103743384846105a2565b5060015b92915050565b600061038b848484610656565b6103dd84336103d885604051806060016040528060288152602001610e55602891396001600160a01b038a166000908152600260209081526040808320338452909152902054919061074e565b6105a2565b5060019392505050565b3360008181526002602090815260408083206001600160a01b038716845290915281205490916103749185906103d8908661077a565b6000610429338361078d565b506001919050565b610439610851565b610443600061087b565b565b6060600580546102e490610b8f565b600061045e610851565b61042933836108cb565b600061037433846103d885604051806060016040528060258152602001610ec3602591393360009081526002602090815260408083206001600160a01b038d168452909152902054919061074e565b6000610374338484610656565b600580546104d190610b8f565b80601f01602080910402602001604051908101604052809291908181526020018280546104fd90610b8f565b801561054a5780601f1061051f5761010080835404028352916020019161054a565b820191906000526020600020905b81548152906001019060200180831161052d57829003601f168201915b505050505081565b600680546104d190610b8f565b610567610851565b6001600160a01b0381166105965760405162461bcd60e51b815260040161058d90610bfe565b60405180910390fd5b61059f8161087b565b50565b6001600160a01b0383166105c85760405162461bcd60e51b815260040161058d90610c4d565b6001600160a01b0382166105ee5760405162461bcd60e51b815260040161058d90610c9a565b6001600160a01b0380841660008181526002602090815260408083209487168084529490915290819020849055517f8c5be1e5ebec7d5bd14f71427d1e84f3dd0314c0f7b2291e5b200ac8c7c3b92590610649908590610a70565b60405180910390a3505050565b6001600160a01b03831661067c5760405162461bcd60e51b815260040161058d90610cea565b6001600160a01b0382166106a25760405162461bcd60e51b815260040161058d90610d38565b6106df81604051806060016040528060268152602001610e7d602691396001600160a01b038616600090815260016020526040902054919061074e565b6001600160a01b03808516600090815260016020526040808220939093559084168152205461070e908261077a565b6001600160a01b038084166000818152600160205260409081902093909355915190851690600080516020610ea383398151915290610649908590610a70565b600081848411156107725760405162461bcd60e51b815260040161058d91906109c3565b505050900390565b60006107868284610d5e565b9392505050565b6001600160a01b0382166107b35760405162461bcd60e51b815260040161058d90610dad565b6107f081604051806060016040528060228152602001610ee8602291396001600160a01b038516600090815260016020526040902054919061074e565b6001600160a01b0383166000908152600160205260409020556003546108169082610961565b6003556040516000906001600160a01b03841690600080516020610ea383398151915290610845908590610a70565b60405180910390a35050565b6000546001600160a01b031633146104435760405162461bcd60e51b815260040161058d90610def565b600080546001600160a01b038381166001600160a01b0319831681178455604051919092169283917f8be0079c531659141344cd1fd0a4f28419497f9722a3daafe3b4186f6b6457e09190a35050565b6001600160a01b0382166108f15760405162461bcd60e51b815260040161058d90610e31565b6003546108fe908261077a565b6003556001600160a01b038216600090815260016020526040902054610924908261077a565b6001600160a01b038316600081815260016020526040808220939093559151909190600080516020610ea383398151915290610845908590610a70565b60006107868284610e41565b60005b83811015610988578181015183820152602001610970565b50506000910152565b600061099b825190565b8084526020840193506109b281856020860161096d565b601f01601f19169290920192915050565b602080825281016107868184610991565b60006001600160a01b038216610378565b6109ee816109d4565b811461059f57600080fd5b8035610378816109e5565b806109ee565b803561037881610a04565b60008060408385031215610a2b57610a2b600080fd5b6000610a3785856109f9565b9250506020610a4885828601610a0a565b9150509250929050565b8015155b82525050565b602081016103788284610a52565b80610a56565b602081016103788284610a6a565b600080600060608486031215610a9657610a96600080fd5b6000610aa286866109f9565b9350506020610ab3868287016109f9565b9250506040610ac486828701610a0a565b9150509250925092565b60ff8116610a56565b602081016103788284610ace565b600060208284031215610afa57610afa600080fd5b6000610b068484610a0a565b949350505050565b600060208284031215610b2357610b23600080fd5b6000610b0684846109f9565b610a56816109d4565b602081016103788284610b2f565b60008060408385031215610b5c57610b5c600080fd5b6000610b6885856109f9565b9250506020610a48858286016109f9565b634e487b7160e01b600052602260045260246000fd5b600281046001821680610ba357607f821691505b602082108103610bb557610bb5610b79565b50919050565b60268152602081017f4f776e61626c653a206e6577206f776e657220697320746865207a65726f206181526564647265737360d01b602082015290505b60400190565b6020808252810161037881610bbb565b60248152602081017f42455032303a20617070726f76652066726f6d20746865207a65726f206164648152637265737360e01b60208201529050610bf8565b6020808252810161037881610c0e565b60228152602081017f42455032303a20617070726f766520746f20746865207a65726f206164647265815261737360f01b60208201529050610bf8565b6020808252810161037881610c5d565b60258152602081017f42455032303a207472616e736665722066726f6d20746865207a65726f206164815264647265737360d81b60208201529050610bf8565b6020808252810161037881610caa565b60238152602081017f42455032303a207472616e7366657220746f20746865207a65726f206164647281526265737360e81b60208201529050610bf8565b6020808252810161037881610cfa565b634e487b7160e01b600052601160045260246000fd5b8082018082111561037857610378610d48565b60218152602081017f42455032303a206275726e2066726f6d20746865207a65726f206164647265738152607360f81b60208201529050610bf8565b6020808252810161037881610d71565b60208082527f4f776e61626c653a2063616c6c6572206973206e6f7420746865206f776e657291019081525b60200190565b6020808252810161037881610dbd565b601f8152602081017f42455032303a206d696e7420746f20746865207a65726f20616464726573730081529050610de9565b6020808252810161037881610dff565b8181038181111561037857610378610d4856fe42455032303a207472616e7366657220616d6f756e74206578636565647320616c6c6f77616e636542455032303a207472616e7366657220616d6f756e7420657863656564732062616c616e6365ddf252ad1be2c89b69c2b068fc378daa952ba7f163c4a11628f55a4df523b3ef42455032303a2064656372656173656420616c6c6f77616e63652062656c6f77207a65726f42455032303a206275726e20616d6f756e7420657863656564732062616c616e6365a26469706673582212207ce1b6e2db73c693cbfb222769fc587ae2f8b5ac3e5219ec301be4ed12f5265764736f6c63430008110033",
  "linkReferences": {},
  "deployedLinkReferences": {}
}